:100000000C94DB000C9403010C9403010C94030189
:100010000C9403010C9403010C9403010C94030150
:100020000C9403010C9403010C94AA040C941C0579
:100030000C9403010C9403010C9403010C94030130
:100040000C9403010C9403010C9403010C94030120
:100050000C9403010C9403010C9403010C944C07C1
:100060000C9403010C9403010C9403010C94030100
:100070000C9403010C9403010C9403010C940301F0
:100080000C9403010C9403010C9403010C940301E0
:100090000C9403010C9403010C9403010C940301D0
:1000A0000C9403010C9403010C9403012B012E0109
:1000B0001D01210125014F014F014F013201360180
:1000C0003A01400144014F014A01000000002400B0
:1000D00027002A002D003000080B00020202010058
:1000E000090400000102020000052400100105249B
:1000F000010101042402060524060001070581030D
:1001000010004009040100020A0000000705020275
:1001100040000007058302400000040309041201A7
:100120000002EF020140412341800001010203016E
:1001300041726475696E6F204C4C43004172647566
:10014000696E6F2059756E000000000025002800C0
:100150002B002E00310004040404040304050202F1
:100160000202040302020202060606060606040450
:1001700002020204040408020110408040102040E2
:10018000804080080204018040201002011080108D
:10019000204040200000000200090F00000304017D
:1001A000000C000000000000000000000000000043
:1001B00000000000960711241FBECFEFDAE0DEBF7B
:1001C000CDBF22E0ACE4B1E001C01D92AB30B2077C
:1001D000E1F711E0A0E0B1E0E8E6F4E102C005904B
:1001E0000D92AC34B107D9F710E0CBEDD0E004C0EC
:1001F0002197FE010E94270ACA3DD107C9F70E9434
:10020000BD070C94320A0C940000E1EAF1E044913D
:10021000E2E8F1E02491E3E6F1E09491992309F416
:1002200051C04423E1F150E0FA013197EF30F1057C
:10023000B0F5EA5AFF4F0C94270A309180003F77BF
:1002400007C0309180003F7D03C030918000377F30
:100250003093800024C034B53F7702C034B53F7D71
:1002600034BD1DC0309190003F7707C030919000A1
:100270003F7D03C030919000377F309390000FC0D6
:100280003091C0003F7703C03091C0003F7D309374
:10029000C00005C03091C200377F3093C200E92F03
:1002A000F0E0EE0FFF1FE85BFE4FA591B4919FB702
:1002B000F894EC91811103C020952E2301C02E2BC0
:1002C0002C939FBF0895FC0180917201811103C09E
:1002D0008FEF9FEF08959FB7F89482E08093E90035
:1002E0002091F20030E01216130614F421E030E001
:1002F0002115310559F0289884E680937101809189
:10030000F10080838091F200882319F09FBFC9011A
:1003100008958BE68093E800F9CF2FB7F89483E037
:100320008093E9009091E800892F807295FF04C0C6
:100330009091F20080E4891B2FBF0895809169019C
:1003400081110DC082E08093650184E08093660195
:10035000109268011092670181E08093690185E63F
:1003600091E0089540915F015091600120915D01FD
:1003700030915E0142175307B4F49091E8009570F4
:10038000E1F39091E80092FD19C08093F100809113
:100390005F019091600101968F739927892B19F461
:1003A0008EEF8093E80080915F019091600101964B
:1003B0009093600180935F0181E0089580E008954B
:1003C000CF92DF92EF92FF920F931F93CF93DF9321
:1003D0001F92CDB7DEB7182F062FE42E862F880F79
:1003E0008E5F99830E94B20183E00E94B201F12ED8
:1003F000C12E9981D92E8C2D8F19801798F4F60172
:10040000E7FE02C0849101C080810E94B201182FD2
:1004100080E00E94B2018123FFEFCF1ADF0A811131
:10042000EACF01C081E00F90DF91CF911F910F9132
:10043000FF90EF90DF90CF900895DF92EF92FF92C0
:100440000F931F93CF93DF93D82E8A017B01E40E85
:10045000F51EEB01CE15DF0571F0D7FE03C0FE01DE
:10046000849101C088810E94B20121968111F2CF4E
:100470008FEF9FEF01C0C801DF91CF911F910F91C6
:10048000FF90EF90DF9008950F931F93CF93DF932A
:100490001F92CDB7DEB782E0898342E450E068ED79
:1004A00070E080E80E941D020E949E01DC0112960D
:1004B0000D911C9113970115110569F0D801ED916B
:1004C000FC910280F381E02DBE016F5F7F4FC80178
:1004D000099597FF07C089810F90DF91CF911F91F8
:1004E0000F910895F80100851185E5CF615030F036
:1004F0002091F100FC0120830196F8CF289884E632
:10050000809371010895CF92DF92EF92FF920F9343
:100510001F93CF93DF936C017A018B01C0E0D0E091
:10052000CE15DF0589F0D8016D918D01D601ED91D1
:10053000FC910190F081E02DC6010995892B11F401
:100540007E0102C02196ECCFC701DF91CF911F91B0
:100550000F91FF90EF90DF90CF900895CF93DF93AE
:100560001F92CDB7DEB76983DC01ED91FC9102806B
:10057000F381E02D41E050E0BE016F5F7F4F0995B0
:100580000F90DF91CF91089583E08093E9008091EF
:10059000F200882319F08AE38093E80008950E940E
:1005A0008D0190E00895CF93DF931F92CDB7DEB712
:1005B000FC018485958597FD05C02FEF3FEF3587BA
:1005C00024870BC0CE0101960E946301019719F4A4
:1005D000898190E002C08FEF9FEF0F90DF91CF9164
:1005E00008950F931F93CF93DF931F92CDB7DEB77C
:1005F0008C01FC018485958597FF0EC0CE01019684
:100600000E946301019719F4298130E002C02FEFA5
:100610003FEFF80135872487F801848595850F9091
:10062000DF91CF911F910F910895FC0184859585ED
:1006300097FD0BC09FB7F89482E08093E90080910A
:10064000F2009FBF90E0019608959FB7F89482E072
:100650008093E9008091F2009FBF90E00895089593
:1006600080E090E008953FB7F89480915101909117
:100670005201A0915301B091540126B5A89B05C029
:100680002F3F19F00196A11DB11D3FBFBA2FA92F11
:10069000982F8827820F911DA11DB11DBC01CD018E
:1006A00042E0660F771F881F991F4A95D1F708957A
:1006B0008F929F92AF92BF92CF92DF92EF92FF9272
:1006C0006B017C010E9433034B015C01C114D10416
:1006D000E104F104F1F00E943303DC01CB0188193D
:1006E0009909AA09BB09883E9340A105B10570F399
:1006F00021E0C21AD108E108F10888EE880E83E0F3
:10070000981EA11CB11CC114D104E104F10419F715
:10071000DDCFFF90EF90DF90CF90BF90AF909F9094
:100720008F9008958F929F92AF92BF92CF92DF9257
:10073000EF92FF920F931F93CF93DF935C016B01B6
:100740007A0180910B01882309F45BC080917201CA
:10075000882309F456C08091630180FF05C0809111
:10076000E00082608093E000E70110E00AEF83E0A0
:10077000882E9AE3992E2097D9F10E948D0181113C
:100780000AC0015009F43DC061E070E080E090E0F3
:100790000E945803F0CF282F30E0C217D3070CF483
:1007A0008C2F4FB7F8948092E9009091E80095FF64
:1007B0001DC0282F30E0C21BD30BF601982F91509B
:1007C00020F081918093F100FACFC20ED31E112345
:1007D00019F09092E80009C08091E80085FD06C0FC
:1007E0009092E80011E0209709F010E04FBFC3CFCE
:1007F0001111C3CF5D9884E6809364011E141F0419
:1008000044F081E090E0F5019383828380E090E002
:1008100001C0C701DF91CF911F910F91FF90EF9021
:10082000DF90CF90BF90AF909F908F9008952FB79B
:10083000F89460914D0170914E0180914F0190911B
:1008400050012FBF08958F929F92AF92BF92CF9287
:10085000DF92EF92FF926B017C010E9417044B0123
:100860005C01C60ED71EE81EF91E0E94170468150B
:1008700079058A059B0528F0C616D706E806F9060D
:10088000A0F7FF90EF90DF90CF90BF90AF909F9038
:100890008F9008950E942D0A6115710579F0FB0172
:1008A00001900020E9F73197AF01461B570BDC019F
:1008B000ED91FC910280F381E02D099480E090E0BD
:1008C00008954F925F926F927F92EF92FF920F93F3
:1008D0001F93CF93DF93CDB7DEB7A1970FB6F894F0
:1008E000DEBF0FBECDBF7C01FA01CB0119A22230C1
:1008F00008F42AE08E010F5D1F4F422E512C612C0F
:10090000712CBF01A30192010E94050AF901CA01DD
:10091000015011096A3014F4605D01C0695CD801AE
:100920006C93232B242B252B61F7B801C7010E9460
:100930004C04A1960FB6F894DEBF0FBECDBFDF9179
:10094000CF911F910F91FF90EF907F906F905F90EC
:100950004F9008951F920F920FB60F9211248F930C
:100960009F938091E1009091E100937F9093E1004B
:1009700083FF0FC01092E90091E09093EB0010927A
:10098000EC0092E39093ED001092720198E0909346
:10099000F00082FF20C093E09093E9009091F20074
:1009A000992319F09AE39093E800909164019923B8
:1009B00039F090916401915090936401992389F1E9
:1009C00090917101992339F0909171019150909318
:1009D0007101992341F184FF10C08091E2008E7E65
:1009E00081608093E2008091E1008F7E8093E1003E
:1009F000809163018E7E806111C080FF16C080915E
:100A0000E2008E7E80618093E2008091E1008E7E24
:100A10008093E100809163018E7E81608093630109
:100A200004C05D9ACDCF289AD6CF9F918F910F9019
:100A30000FBE0F901F9018951F920F920FB60F9236
:100A40001124CF92DF92EF92FF920F931F932F9377
:100A50003F934F935F936F937F938F939F93AF9346
:100A6000BF93EF93FF93CF93DF93CDB7DEB76C9730
:100A7000DEBFCDBF1092E9008091E80083FFEDC199
:100A800068E0CE0145960E94760282EF8093E800EE
:100A90008D8987FF05C09091E80090FFFCCF03C0CF
:100AA0009EEF9093E800982F907609F0C6C09E893B
:100AB0002F89188D91110CC0803829F48091620122
:100AC0008093F10002C01092F1001092F10048C131
:100AD000422F50E0512B913051F4811141C14130EE
:100AE000510509F03DC1809162018D7F0BC09330AB
:100AF00061F4811135C14130510509F031C1809156
:100B000062018260809362012BC1953041F4809133
:100B1000E80080FFFCCF20682093E30021C19630DD
:100B200009F05FC0EB8CFC8C1092E9001092600120
:100B300010925F01123091F510925E0110925D01EA
:100B40000E94440299E0BE016F5F7F4FDB01E92FF5
:100B50001D92EA95E9F799831A8391E09E8390EAC2
:100B600098879AEF998720915F0130916001275F04
:100B70003F4F3C832B838D831092E90010926001DC
:100B800010925F01F0925E01E0925D0149E050E059
:100B900080E00E941D020E944402E2C0F0925E01C9
:100BA000E0925D010E949E01DC011296ED90FC90A6
:100BB0001397E114F10409F4C0C0D701ED91FC9141
:100BC0000480F581E02DBE016B5E7F4FC701099562
:100BD000009719F00CF0C4C0C7C0F701E084F1849D
:100BE000E8CF973009F4C0C0983021F481E08093B9
:100BF000F100B6C0993009F0B3C0837009F0B4C0F9
:100C0000EDE0F1E081E021E036E39081992361F0AD
:100C10008093E9002093EB0091919093EC00309346
:100C2000ED008F5F873089F78EE78093EA0010929E
:100C3000EA008F898093720193C08B8D9C8D1092F6
:100C4000E9001092600110925F0190935E01809321
:100C50005D01898D811156C08E899D89913A59F423
:100C6000813209F081C047E050E064E071E080E04B
:100C70000E941D0275C0913209F076C0833289F45A
:100C8000888D90E0982F88272F89822BA0E0B0E0F4
:100C90008093000190930101A0930201B09303019E
:100CA0005FC0803269F48091E80082FFFCCF67E08A
:100CB00084E091E00E9476028BEF8093E80006C00A
:100CC000823209F04DC08F8980930B0180916101C0
:100CD000882319F0EEEFFAE002C0E0E0F8E080913E
:100CE000040190910501A0910601B0910701803B9C
:100CF0009440A105B10509F07BC080910B0180FFF4
:100D000093C076C00E949E01DC0112960D911C9149
:100D100013970115110541F1D801ED91FC91019056
:100D2000F081E02DBE016B5E7F4FC80109958111F6
:100D300017C0F80100851185ECCF113009F44EC0C1
:100D4000133091F48F89882309F445C0823081F4EF
:100D500040E86BE08CE391E00E94E001882321F001
:100D60008EEF8093E80079C081E28093EB0075C03C
:100D7000813029F440E86BE080E391E0EDCF8330EF
:100D800099F70E949E01DC011296ED90FC9013975A
:100D90008E010F5F1F4F6801E114F10479F0D70154
:100DA000ED91FC910680F781E02DB801C70109950E
:100DB000080F111DF701E084F184EECFD8011C92D9
:100DC000F60101900020E9F73197BF016C197D0908
:100DD00040E0C601C1CF6AE171E002C06EE171E09E
:100DE0006115710509F2FB01449150E080E840CFA4
:100DF0000FB6F894A8958091600088618093600098
:100E0000109260000FBEA895EE3F2AE0F20739F07D
:100E10008091FE0A9091FF0A91838083A1CF109266
:100E2000FF0A1092FE0A9CCFEE3F8AE0F80731F0ED
:100E3000808191819093FF0A8093FE0A87E797E76C
:100E4000918380839BE088E10FB6F894A895809306
:100E500060000FBE9093600083CF6C960FB6F8943D
:100E6000DEBF0FBECDBFDF91CF91FF91EF91BF915C
:100E7000AF919F918F917F916F915F914F913F9132
:100E80002F911F910F91FF90EF90DF90CF900F90D7
:100E90000FBE0F901F9018951F920F920FB60F92D2
:100EA00011242F933F938F939F93AF93BF93809180
:100EB0004D0190914E01A0914F01B09150013091A0
:100EC0004C0123E0230F2D3720F40196A11DB11D05
:100ED00005C026E8230F0296A11DB11D20934C01E9
:100EE00080934D0190934E01A0934F01B093500118
:100EF0008091510190915201A0915301B091540100
:100F00000196A11DB11D8093510190935201A093B0
:100F10005301B0935401BF91AF919F918F913F9135
:100F20002F910F900FBE0F901F901895E3E7F1E0FF
:100F30001382128288EE93E0A0E0B0E08483958370
:100F4000A683B78387E191E0918380838FEF9FEF42
:100F500095878487E3ECF1E016821782108611866C
:100F6000128613861486158616861786108A118AAD
:100F7000128A138A148A158A0895789484B5826037
:100F800084BD84B5816084BD85B5826085BD85B52D
:100F9000816085BD80916E00816080936E001092AB
:100FA0008100809181008260809381008091810026
:100FB00081608093810080918000816080938000B7
:100FC0008091910082608093910080919100816076
:100FD0008093910080919000816080939000809137
:100FE000C10084608093C1008091C10082608093C1
:100FF000C1008091C10081608093C1008091C300D5
:1010000081608093C3008091C00082608093C000A3
:101010008091C20081608093C20080917A008460D8
:1010200080937A0080917A00826080937A00809128
:101030007A00816080937A0080917A008068809342
:101040007A001092720110926201109263018091F5
:10105000D70081608093D70080EA8093D80089B55B
:10106000806189BD89B5826089BD09B400FEFDCF6C
:1010700061E070E080E090E00E9458038091D80029
:101080008F7C80618093D8008091E000807F809386
:10109000E0008091E1008E7E8093E1008DE08093FE
:1010A000E200559A209AEEEFFFE7859194918B3FED
:1010B0009C4D19F481E08093610110920702109217
:1010C00008021092090210920A021092C5011092B1
:1010D000C6011092C7011092C80168EB7BE080E066
:1010E00090E00E94230483E791E0909306028093AE
:1010F0000502CBE1D0E0F0900B016AE070E080E007
:1011000090E00E945803F11009C0219739F064E67D
:1011100070E080E090E00E945803EDCFE09105027E
:10112000F09106028FEF9FEF958784870E94170446
:101130006093C5017093C6018093C7019093C80165
:1011400065E271E080910502909106020E944C04D4
:101150006AE070E080E090E00E94230481E08093E8
:10116000D901E2E8F1E02491E3E6F1E084918823FB
:1011700099F090E0880F991FFC01E653FF4FA5916D
:10118000B491FC01E85BFE4F859194918FB7F89480
:10119000EC91E22BEC938FBFC0E0D0E084EF882E7F
:1011A00099249394A12CB12C0E941704672B682BCF
:1011B000692B41F40E941704623071058105910585
:1011C00008F40BC10E9417046093590170935A01EF
:1011D00080935B0190935C01C0905501D0905601C3
:1011E000E0905701F09058016C157D058E059F0524
:1011F00040F460935501709356018093570190938A
:101200005801C0905501D0905601E0905701F090E0
:1012100058019B01AC012C193D094E095F09690178
:101220007A013AEFC316D104E104F10408F4D5C001
:101230006093550170935601809357019093580124
:101240008092D1019092D201A092D301B092D401A8
:101250001092D5011092D6011092D7011092D801A8
:101260008091C9019091CA01A091CB01B091CC01AC
:101270008093CD019093CE01A093CF01B093D00184
:101280000E9417046093C9017093CA018093CB0137
:101290009093CC010E9417046093C5017093C6011E
:1012A0008093C7019093C8010E9417046B017C01D1
:1012B00067E371E080910502909106020E944C0460
:1012C0002AE041E050E060E070E0809105029091FA
:1012D00006020E9461046EE371E080910502909124
:1012E00006020E944C042AE0B701A6018091050283
:1012F000909106020E94610460E471E08091050211
:10130000909106020E944C048091C9019091CA01FB
:10131000A091CB01B091CC01B701A601481B590B9C
:101320006A0B7B0B2AE080910502909106020E94D5
:10133000610460E471E080910502909106020E94D0
:101340004C044091C9015091CA016091CB01709148
:10135000CC018091CD019091CE01A091CF01B091AF
:10136000D001481B590B6A0B7B0B2AE080910502C8
:10137000909106020E94610462E471E0809105028E
:10138000909106020E944C040E941704AB01BC011C
:101390002AE080910502909106020E946104E0908B
:1013A0000502F090060264E471E0C7010E944C045B
:1013B00064E371E0C7010E944C0465E070E080E0E6
:1013C00090E00E9423040E9417046093C901709367
:1013D000CA018093CB019093CC0181E00E9405016A
:1013E00068EE73E080E090E00E94580380E00E9485
:1013F000050168EE73E080E090E00E9458032097BA
:1014000009F4D2CE0E940000CFCEA1E21A2EAA1B70
:10141000BB1BFD010DC0AA1FBB1FEE1FFF1FA217A4
:10142000B307E407F50720F0A21BB30BE40BF50BA1
:10143000661F771F881F991F1A9469F7609570952A
:10144000809590959B01AC01BD01CF010895EE0FF1
:10145000FF1F0590F491E02D099481E090E0F8944D
:081460000C94320AF894FFCF4E
:10146800FFFFFFFF00E100000000000000C18081D5
:1014780000000000000000AE029203CF02C4021573
:1014880003D302F102564D4450565F317C315F560A
:101498004D4450560D0A00564D4450455F003A32AF
:0C14A8003A007C005F564D4450450000A7
:1070000055C000006EC000006CC000006AC00000E7
:1070100068C0000066C0000064C0000062C00000DC
:1070200060C000005EC00000FCC400005AC0000048
:1070300058C0000056C0000054C0000052C00000FC
:1070400050C000005DC000004CC000004AC00000FD
:1070500048C0000046C0000044C0000042C000001C
:1070600040C000003EC000003CC000003AC000002C
:1070700038C0000036C0000034C0000032C000003C
:1070800030C000002EC000002CC000002AC000004C
:1070900028C0000026C0000024C0000022C000005C
:1070A00020C000001EC000001CC0000011241FBE34
:1070B000CFEFDAE0DEBFCDBF11E0A0E0B1E0E6E463
:1070C000FFE702C005900D92A63AB107D9F711E08B
:1070D000A6EAB1E001C01D92AF3BB107E1F74FD383
:1070E00030C78ECFF89410926F001092810081E02B
:1070F00085BF15BE47985D9A289A0C9400000895A4
:107100001F920F920FB60F9211242F938F939F937C
:10711000EF93FF9310928500109284008091A60156
:107120009091A701009741F001979093A701809358
:10713000A601892B09F45D9A8091A8019091A9017B
:10714000009741F001979093A9018093A801892BA2
:1071500009F4289A8091AC019091AD010196909329
:10716000AD018093AC01E0E0F0E0859194918F5FF8
:107170009F4F49F08091AA019091AB0101969093A5
:10718000AB018093AA01FF91EF919F918F912F9175
:107190000F900FBE0F901F90189584E08093E90028
:1071A0000DC08091E8008B778093E80003C08EB318
:1071B000882351F08091E80082FFF9CF8091E800A8
:1071C00085FFEFCF8091F1000895982F83E08093A1
:1071D000E9008091E80085FD0DC08091E8008E7780
:1071E0008093E80003C08EB3882369F08091E800A3
:1071F00080FFF9CF9093F1005D9884E690E0909342
:10720000A7018093A60108954F925F926F927F929B
:107210008F929F92AF92BF92CF92DF92EF92FF92A6
:107220000F931F93CF93DF9384E08093E9008091C5
:10723000E80082FF57C2289884E690E09093A90165
:107240008093A801AADF182F853481F48CE49DE196
:107250009093AB018093AA0107B600FCFDCFF9998A
:10726000FECF81E180935700E89503C0843519F47F
:1072700094DF8DE00DC28C34E1F38035D1F3843797
:1072800021F484E4A2DF80E003C2813611F489E5B1
:10729000FFC18134B1F481DF182F7FDF90E0880FC8
:1072A000991FAA2797FDA095BA2F312F330F20E001
:1072B000442737FD4095542F822B932BA42BB52BBD
:1072C000B8C1803711F483E5E3C1833549F4C0E0E8
:1072D000D1E089917ADF21E0C730D207D1F7D9C157
:1072E000863521F481E371DF80E3D2C1833731F445
:1072F00087E86BDF85E969DF8EE1CAC18536B9F4BD
:10730000E0E0F0E093E085E090935700E89507B661
:1073100000FCFDCF80935700E89507B600FCFDCF39
:10732000E058FF4FA0E7E030FA0771F7A2CF8237AD
:1073300039F4E1E0F0E089E0809357008491A8C13E
:10734000863439F4E0E0F0E089E0809357008491DE
:107350009FC18E3439F4E3E0F0E089E08093570078
:10736000849196C1813539F4E2E0F0E089E08093C0
:10737000570084918DC1823631F489E526DF80E0A3
:1073800024DF80E885C1823419F0873609F0E5C032
:107390001092AB011092AA0100DF082FFEDEF82E3A
:1073A000FCDE682E8554823008F071C1902F80E099
:1073B000CF2DD0E0C82BD92B10926F00173609F0D3
:1073C0004BC081E180935700E895DD24CC24C39421
:1073D0003FC0E090AF01F090B0010091B101109179
:1073E000B201B6E46B16D9F4ED2DF0E0EE29FF29D9
:1073F000E4918E2FEADEDD2081F082E090E0A0E0D3
:10740000B0E0E80EF91E0A1F1B1FE092AF01F092D8
:10741000B0010093B1011093B201DC2418C0D8016F
:10742000C701B695A7959795879575D5CEDE82E06D
:1074300090E0A0E0B0E0E80EF91E0A1F1B1FE092EA
:10744000AF01F092B0010093B1011093B201219706
:10745000209709F0BECF7DC08090AF019090B00121
:10746000A090B101B090B20196E4691609F05DC038
:1074700083E0F40180935700E89507B600FCFDCF48
:1074800054C0F6E46F1661F5772031F1E090AF015A
:10749000F090B0010091B1011091B2017EDED82EC2
:1074A000CC24852D90E08C299D29F7010C01409278
:1074B0005700E895112482E090E0A0E0B0E0E80EEB
:1074C000F91E0A1F1B1FE092AF01F092B00100935A
:1074D000B1011093B20102C060DE582E742423C0A3
:1074E000E090AF01F090B0010091B1011091B201B4
:1074F00016950795F794E79450DE682FC70113D5CA
:107500008091AF019091B001A091B101B091B20111
:107510000296A11DB11D8093AF019093B001A0937D
:10752000B101B093B201219704C0552477244424BB
:107530004394209709F0A5CF96E4691641F485E0BD
:10754000F40180935700E89507B600FCFDCF8DE06D
:107550003CDE82E080936F009CC0833471F4009124
:10756000AF011091B00119DE90E021E0F8010C01AB
:1075700020935700E89511247CCE833619F5E090CE
:10758000AF01F090B0010091B1011091B20105DEA0
:10759000F701E16090E021E00C0120935700E895AD
:1075A000112482E090E0A0E0B0E0E80EF91E0A1F8E
:1075B0001B1FE092AF01F092B0010093B101109354
:1075C000B20157CE8D3661F4E091AF01F091B00178
:1075D00085E080935700E89507B600FCFDCF49CEC3
:1075E000823551F4E091AF01F091B0010591149111
:1075F000812FEBDD802F4CC0843421F5E090AF016A
:10760000F090B0010091B1011091B201169507956B
:10761000F794E794C2DD682FC70185D48091AF014C
:107620009091B001A091B101B091B2010296A11D5B
:10763000B11D8093AF019093B001A093B101B093BD
:10764000B20117CE843609F5E090AF01F090B00199
:107650000091B1011091B201D801C701B695A7956B
:107660009795879558D4B1DD82E090E0A0E0B0E036
:10767000E80EF91E0A1F1B1FE092AF01F092B00145
:107680000093B1011093B20104C08B3111F08FE36C
:107690009CDD83E08093E9009091E8008091E80010
:1076A0008E778093E80095FF04C010C08EB38823C6
:1076B000C9F08091E80080FFF9CF8091E8008E77D3
:1076C0008093E80003C08EB3882361F08091E800C6
:1076D00080FFF9CF84E08093E9008091E8008B7708
:1076E0008093E800DF91CF911F910F91FF90EF9071
:1076F000DF90CF90BF90AF909F908F907F906F90D2
:107700005F904F9008959091B701892F8F778132C4
:1077100049F58091B8018032A1F0813219F5913A92
:1077200009F58091E800877F8093E8008CE091E084
:1077300067E070E027D28091E8008B778093E800C3
:107740000895913279F48091E800877F8093E80072
:107750008CE091E067E070E079D28091E8008E776C
:107760008093E800089582E061EC42E0D1D083E0AC
:1077700061E842E1CDD084E060E842E1C9C01F93F6
:10778000209100081092000844B714BE88E10FB69B
:10779000F89480936000109260000FBE80E8E0E0F3
:1077A000F0E00FB6F89480936100E09361000FBEA3
:1077B00031E035BF92E095BF3F9A209A559A809369
:1077C00061001092610047985D9A289A1092890092
:1077D0008AEF8093880090936F0083E0809381000C
:1077E000859194918F5F9F4F11F03093AE01942F4C
:1077F00041FF19C0809109012817A9F08093000862
:10780000789480911301882339F08091AC01909194
:10781000AD018F5E9240C8F310920008F89481E0A9
:10782000809313010CC090FF04C08091AE018823A7
:1078300051F493FF09C080910901281729F0809124
:10784000AE01882309F04EDCD4D078941092AB01BD
:107850001092AA011EEF20C0D7DC4BD38091AA0161
:107860009091AB0181549F4110F0109213018091CF
:10787000B3019091B40101969093B4018093B30148
:10788000292F97FF03C0512F591B252F220F28178F
:1078900010F4479801C0479A809113018823E1F6BC
:1078A0008091E00081608093E0001CDC80E090E04B
:1078B0001F910895FA01923049F0933061F09130B0
:1078C000F9F484E191E022E130E01EC086E291E02B
:1078D0002EE330E019C0882329F484E691E024E007
:1078E00030E012C0813029F488E691E022E230E0F5
:1078F0000BC0823029F48CE891E028E130E004C02C
:1079000080E090E020E030E091838083C901089519
:107910008093E9008091EB0081608093EB001092EE
:10792000ED006093EC004093ED008091EE00881F25
:107930008827881F08958091B70188238CF403C09D
:107940008EB38823B1F08091E80082FFF9CF809157
:10795000E8008B778093E80008958EB3882349F080
:107960008091E80080FFF9CF8091E8008E778093C6
:10797000E8000895EF92FF920F931F9345D04CD0EB
:1079800008ED10E0F80180818F7780838081806826
:10799000808380818F7D808319BC1EBA1092B501CF
:1079A00080EEE82EF12CF70180818B7F8083F80137
:1079B00080818160808380E060E042E0A9DFE1EEC9
:1079C000F0E080818E7F8083E2EEF0E08081816054
:1079D0008083808188608083F70180818E7F8083AF
:1079E000F8018081806180831F910F91FF90EF905B
:1079F0000895E7EDF0E08081816080838AE482BFB2
:107A000081E08093B601B6CFE8EDF0E080818E7F13
:107A100080831092E20008951092DA001092E10043
:107A200008951F920F920FB60F9211242F933F9338
:107A30004F935F936F937F938F939F93AF93BF9376
:107A4000EF93FF938091DA0080FF1BC08091D800F4
:107A500080FF17C08091DA008E7F8093DA008091DA
:107A6000D90080FF0BC080E189BD82E189BD09B4E6
:107A700000FEFDCF81E08EBB3BD203C019BC1EBA15
:107A800037D28091E10080FF17C08091E20080FF33
:107A900013C08091E2008E7F8093E2008091E2002B
:107AA00080618093E2008091D80080628093D8004A
:107AB00019BC85E08EBB1CD28091E10084FF2CC0F4
:107AC0008091E20084FF28C080E189BD82E189BD08
:107AD00009B400FEFDCF8091D8008F7D8093D8003F
:107AE0008091E1008F7E8093E1008091E2008F7EA3
:107AF0008093E2008091E20081608093E2008091B7
:107B0000B501882331F48091E30087FD02C081E054
:107B100001C084E08EBBECD18091E10083FF21C0E5
:107B20008091E20083FF1DC08091E100877F8093F8
:107B3000E10082E08EBB1092B5018091E1008E7F62
:107B40008093E1008091E2008E7F8093E20080913B
:107B5000E20080618093E20080E060E042E0D8DEF5
:107B6000C7D1FF91EF91BF91AF919F918F917F917D
:107B70006F915F914F913F912F910F900FBE0F909A
:107B80001F9018959C014091BD015091BE01461770
:107B9000570718F4F90190E044C06115710511F020
:107BA000AB01F8CF8091E8008E778093E80040E049
:107BB00050E0F0CF8EB3882309F444C0853009F437
:107BC00043C08091E80083FF02C081E00895809166
:107BD000E80082FD31C08091E80080FF22C08091E2
:107BE000F3009091F200782F60E0292F30E0262BEF
:107BF000372B07C081918093F100415050402F5F97
:107C00003F4F4115510519F02830310598F390E0A8
:107C10002830310509F491E08091E8008E77809357
:107C2000E8004115510531F6992321F605C08EB3C0
:107C3000882341F0853041F08091E80082FFF7CF42
:107C400080E0089582E0089583E008959C01611525
:107C5000710529F48091E8008B778093E800F901A1
:107C600026C08EB3882391F1853091F18091E80090
:107C700083FF02C081E008958091E80082FFF1CF88
:107C800006C08091F10081936150704059F02091BD
:107C9000F3008091F200322F20E090E0822B932BB2
:107CA000892B79F78091E8008B778093E800611544
:107CB0007105B9F605C08EB3882341F0853041F0D7
:107CC0008091E80080FFF7CF80E0089582E008957A
:107CD00083E008950F931F93DF93CF9300D0CDB728
:107CE000DEB7E7EBF1E08091F100819381E0EF3BBB
:107CF000F807C9F708DD8091E80083FFE4C08091B0
:107D0000B7019091B801953009F46DC0963040F4F8
:107D1000913081F1913070F0933009F0D4C02AC0D5
:107D2000983009F4A3C0993009F4B2C0963009F034
:107D3000CAC07CC0803809F4C6C0823809F0C3C00C
:107D40008091BB0187708093E9008091EB001092D5
:107D5000E9002091E800277F2093E80090E025E0EB
:107D6000969587952A95E1F781708093F10010929E
:107D7000F10087C0882319F0823009F0A4C08F7108
:107D8000823009F0A0C08091B901882331F520919B
:107D9000BB01277009F497C02093E9008091EB00A4
:107DA00080FF1BC0933021F48091EB00806213C0F0
:107DB0008091EB0080618093EB0081E090E002C055
:107DC000880F991F2A95E2F78093EA001092EA0043
:107DD0008091EB0088608093EB001092E900809125
:107DE000E800877F51C0882309F06DC01091B90168
:107DF0001F770FB7F8948091E800877F8093E800A1
:107E00009ADD8091E80080FFFCCF8091E3008078CC
:107E1000812B8093E30080688093E300112311F4A9
:107E200082E001C083E08EBB0FBF4DC0805882301E
:107E300008F049C08091B9019091BA016091BB01ED
:107E4000AE014F5F5F4F36DDBC01009709F43BC0C8
:107E50008091E800877F8093E80089819A8192DE93
:107E60008091E8008B778093E8002DC0803859F529
:107E70008091E800877F8093E8008091B50180932E
:107E8000F1008091E8008E778093E80054DD1BC0FC
:107E90008823C9F49091B9019230A8F48091E80048
:107EA000877F8093E8009093B50145DD8091B5010F
:107EB000882331F48091E30087FD02C081E001C096
:107EC00084E08EBB50DC8091E80083FF0AC0809183
:107ED000EB0080628093EB008091E800877F8093C5
:107EE000E8000F900F90CF91DF911F910F910895AF
:107EF00008951F938EB3882361F01091E9001092CA
:107F0000E9008091E80083FF01C0E4DE1770109360
:107F1000E9001F910895F999FECF92BD81BDF89AAD
:107F2000992780B50895262FF999FECF1FBA92BDE3
:107F300081BD20BD0FB6F894FA9AF99A0FBE01964A
:067F40000895F894FFCF44
:107F46004341544552494E41007700080000000065
:107F5600000008011201100102000008412341003F
:107F660001000201000109023E00020100803209FF
:107F7600040000010202010005240010010424028D
:107F8600040524060001070582030800FF09040111
:107F960000020A000000070504021000010705831D
:107FA6000210000104030904220341007200640068
:107FB600750069006E006F002000590075006E00A4
:107FC60020002000200020002000000018034100AF
:107FD60072006400750069006E006F0020004C009E
:067FE6004C004300000006
:040000030000700089
:00000001FF