:100000000C94E4000C940C010C940C010C940C0165
:100010000C940C010C940C010C940C010C940C012C
:100020000C940C010C940C010C94F6040C946805CF
:100030000C940C010C940C010C940C010C940C010C
:100040000C940C010C940C010C940C010C940C01FC
:100050000C940C010C940C010C940C010C941903DD
:100060000C940C010C940C010C940C010C940C01DC
:100070000C940C010C940C010C940C010C940C01CC
:100080000C940C010C940C010C940C010C940C01BC
:100090000C940C010C940C010C940C010C940C01AC
:1000A0000C940C010C940C010C940C01650168017A
:1000B00057015B0161018901890189016C017001AE
:1000C00074017A017E01890184010000000023008F
:1000D000260029002C002F000000000200090F005C
:1000E00000030401000C00000000000000000000FC
:1000F00000000000000000080B00020202010009DD
:100100000400000102020000052400100105240182
:1001100001010424020605240600010705810310DD
:10012000004009040100020A000000070502024025
:1001300000000705830240000004030904120100C7
:1001400002EF020140412336800001010203014118
:10015000726475696E6F204C4C430041726475691E
:100160006E6F204C656F6E6172646F00000000005E
:10017000250028002B002E00310000000000240084
:1001800027002A002D0030000404040404030405A1
:100190000202020204030202020206060606060624
:1001A000040402020204040408020110408040100A
:1001B000204080408008020401804020100201108D
:1001C0008010204040208E0A11241FBECFEFDAE0BD
:1001D000DEBFCDBF22E0A8E5B1E001C01D92A8318D
:1001E000B207E1F711E0A0E0B1E0E8ECF5E102C010
:1001F00005900D92A835B107D9F710E0C4EED0E014
:1002000004C02197FE010E94D70AC33ED107C9F757
:100210000E94F6070C94E20A0C940000CF93DF933F
:100220001F92CDB7DEB76983DC01ED91FC910280AE
:10023000F381E02D41E050E0BE016F5F7F4F0995F3
:100240000F90DF91CF91089583E08093E900809132
:10025000F200882319F08AE38093E8000895FC01F6
:100260008485958597FD0BC09FB7F89482E08093B5
:10027000E9008091F2009FBF90E0019608959FB73A
:10028000F89482E08093E9008091F2009FBF90E0B3
:100290000895089580E090E0089590E0FC01319782
:1002A000EF30F105B0F5EA5AFF4F0C94D70A809170
:1002B00080008F7703C0809180008F7D80938000C5
:1002C000089580918000877FF9CF84B58F7702C031
:1002D00084B58F7D84BD0895809190008F7707C08D
:1002E000809190008F7D03C080919000877F8093E4
:1002F000900008958091C0008F7703C08091C00066
:100300008F7D8093C00008958091C200877F809385
:10031000C2000895CF93DF93282F30E0F901E8520F
:10032000FF4F8491F901E955FE4FD491F901E85747
:10033000FE4FC491CC2391F081110E944D01EC2F0E
:10034000F0E0EE0FFF1FE653FF4FA591B491EC9143
:10035000ED2381E090E021F480E002C080E090E0B5
:10036000DF91CF9108951F93CF93DF93282F30E033
:10037000F901E852FF4F8491F901E955FE4FD491FC
:10038000F901E857FE4FC491CC23C9F0162F811113
:100390000E944D01EC2FF0E0EE0FFF1FE459FE4FDD
:1003A000A591B4918FB7F894111105C09C91ED2FD0
:1003B000E095E92302C0EC91ED2BEC938FBFDF9128
:1003C000CF911F9108953FB7F89480915D0190916E
:1003D0005E01A0915F01B091600126B5A89B05C0A8
:1003E0002F3F19F00196A11DB11D3FBFBA2FA92FB4
:1003F000982F8827820F911DA11DB11DBC01CD0131
:1004000042E0660F771F881F991F4A95D1F708951C
:100410008F929F92AF92BF92CF92DF92EF92FF9214
:100420006B017C010E94E3014B015C01C114D1040A
:10043000E104F104F1F00E94E301DC01CB01881931
:100440009909AA09BB09883E9340A105B10570F33B
:1004500021E0C21AD108E108F10888EE880E83E095
:10046000981EA11CB11CC114D104E104F10419F7B8
:10047000DDCFFF90EF90DF90CF90BF90AF909F9037
:100480008F9008958F929F92AF92BF92CF92DF92FA
:10049000EF92FF920F931F93CF93DF935C016B0159
:1004A0007A0180910B01882309F45BC080916E0171
:1004B000882309F456C080916C0180FF05C08091AB
:1004C000E00082608093E000E70110E00AEF83E043
:1004D000882E9AE3992E2097D9F10E94E504811184
:1004E0000AC0015009F43DC061E070E080E090E096
:1004F0000E940802F0CF282F30E0C217D3070CF477
:100500008C2F4FB7F8948092E9009091E80095FF06
:100510001DC0282F30E0C21BD30BF601982F91503D
:1005200020F081918093F100FACFC20ED31E1123E7
:1005300019F09092E80009C08091E80085FD06C09E
:100540009092E80011E0209709F010E04FBFC3CF70
:100550001111C3CF5D9884E680936D011E141F04B2
:1005600044F081E090E0F5019383828380E090E0A5
:1005700001C0C701DF91CF911F910F91FF90EF90C4
:10058000DF90CF90BF90AF909F908F9008950E9482
:10059000E50490E00895CF93DF931F92CDB7DEB7C7
:1005A000FC018485958597FD05C02FEF3FEF3587CA
:1005B00024870BC0CE0101960E94BB04019719F459
:1005C000898190E002C08FEF9FEF0F90DF91CF9174
:1005D00008950F931F93CF93DF931F92CDB7DEB78C
:1005E0008C01FC018485958597FF0EC0CE01019694
:1005F0000E94BB04019719F4298130E002C02FEF5B
:100600003FEFF80135872487F801848595850F90A1
:10061000DF91CF911F910F9108952FB7F8946091BA
:10062000590170915A0180915B0190915C012FBF3B
:1006300008951F920F920FB60F9211242F933F939C
:100640008F939F93AF93BF938091590190915A01DB
:10065000A0915B01B0915C013091580123E0230F20
:100660002D3720F40196A11DB11D05C026E8230FEA
:100670000296A11DB11D20935801809359019093BA
:100680005A01A0935B01B0935C0180915D01909150
:100690005E01A0915F01B09160010196A11DB11DA5
:1006A00080935D0190935E01A0935F01B093600120
:1006B000BF91AF919F918F913F912F910F900FBE5E
:1006C0000F901F90189580910F0281110DC082E04C
:1006D00080930B0284E080930C0210920E02109221
:1006E0000D0281E080930F028BE092E0089540912B
:1006F000090250910A022091070230910802421724
:100700005307B4F49091E8009570E1F39091E800FC
:1007100092FD19C08093F1008091090290910A0224
:1007200001968F739927892B19F48EEF8093E80037
:100730008091090290910A02019690930A02809397
:10074000090281E0089580E00895CF92DF92EF9250
:10075000FF920F931F93CF93DF931F92CDB7DEB716
:10076000182F062FE42E862F880F8E5F99830E9404
:10077000770383E00E947703F12EC12E9981D92E51
:100780008C2D8F19801798F4F601E7FE02C0849132
:1007900001C080810E947703182F80E00E947703B8
:1007A0008123FFEFCF1ADF0A8111EACF01C081E078
:1007B0000F90DF91CF911F910F91FF90EF90DF90FD
:1007C000CF900895DF92EF92FF920F931F93CF93F4
:1007D000DF93D82E8A017B01E40EF51EEB01CE15C6
:1007E000DF0571F0D7FE03C0FE01849101C088814E
:1007F0000E94770321968111F2CF8FEF9FEF01C006
:10080000C801DF91CF911F910F91FF90EF90DF9082
:1008100008950F931F93CF93DF931F92CDB7DEB749
:1008200082E0898342E450E067EF70E080E80E9454
:10083000E2030E946303DC0112960D911C91139751
:100840000115110569F0D801ED91FC910280F38149
:10085000E02DBE016F5F7F4FC801099597FF07C06C
:1008600089810F90DF91CF911F910F910895F80129
:1008700000851185E5CF615030F02091F100FC0139
:1008800020830196F8CF289884E680931702089574
:10089000CF92DF92EF92FF920F931F93CF93DF934C
:1008A0006C017A018B01C0E0D0E0CE15DF0589F044
:1008B000D8016D918D01D601ED91FC910190F081EF
:1008C000E02DC6010995892B11F47E0102C0219605
:1008D000ECCFC701DF91CF911F910F91FF90EF9067
:1008E000DF90CF9008950E94DD0A90E0FC01E95569
:1008F000FE4F2491FC01E857FE4F8491882399F024
:1009000090E0880F991FFC01E658FE4FA591B49125
:10091000FC01E459FE4F859194918FB7F894EC91C6
:10092000E22BEC938FBF08958F929F92AF92BF926C
:10093000CF92DF92EF92FF926B017C010E940D0338
:100940004B015C01C60ED71EE81EF91E0E940D0366
:10095000681579058A059B0528F0C616D706E806AE
:10096000F906A0F7FF90EF90DF90CF90BF90AF9087
:100970009F908F900895FC0180916E01811103C0BA
:100980008FEF9FEF08959FB7F89482E08093E9007E
:100990002091F20030E01216130614F421E030E04A
:1009A0002115310559F0289884E68093170280912B
:1009B000F10080838091F200882319F09FBFC90164
:1009C00008958BE68093E800F9CF2FB7F89483E081
:1009D0008093E9009091E800892F807295FF04C010
:1009E0009091F20080E4891B2FBF08951F920F920F
:1009F0000FB60F9211248F939F938091E1009091F5
:100A0000E100937F9093E10083FF0FC01092E90013
:100A100091E09093EB001092EC0092E39093ED0044
:100A200010926E0198E09093F00082FF20C093E056
:100A30009093E9009091F200992319F09AE3909332
:100A4000E80090916D01992339F090916D019150DA
:100A500090936D01992389F190911702992339F0B0
:100A600090911702915090931702992341F184FFBE
:100A700010C08091E2008E7E81608093E2008091C0
:100A8000E1008F7E8093E10080916C018E7E806119
:100A900011C080FF16C08091E2008E7E806180933D
:100AA000E2008091E1008E7E8093E10080916C01F4
:100AB0008E7E816080936C0104C05D9ACDCF289AB0
:100AC000D6CF9F918F910F900FBE0F901F901895CA
:100AD0001F920F920FB60F921124CF92DF92EF92D6
:100AE000FF920F931F932F933F934F935F936F93B7
:100AF0007F938F939F93AF93BF93EF93FF93CF9386
:100B0000DF93CDB7DEB76C97DEBFCDBF1092E900A3
:100B10008091E80083FFEDC168E0CE0145960E9418
:100B20003B0482EF8093E8008D8987FF05C0909198
:100B3000E80090FFFCCF03C09EEF9093E800982F51
:100B4000907609F0C6C09E892F89188D91110CC02E
:100B5000803829F480916B018093F10002C01092DB
:100B6000F1001092F10048C1422F50E0512B91301A
:100B700051F4811141C14130510509F03DC18091CD
:100B80006B018D7F0BC0933061F4811135C1413011
:100B9000510509F031C180916B01826080936B0136
:100BA0002BC1953041F48091E80080FFFCCF206894
:100BB0002093E30021C1963009F05FC0EB8CFC8CE0
:100BC0001092E90010920A0210920902123091F577
:100BD00010920802109207020E94090499E0BE01D7
:100BE0006F5F7F4FDB01E92F1D92EA95E9F799834B
:100BF0001A8391E09E8390EA98879AEF99872091D3
:100C0000090230910A02275F3F4F3C832B838D837B
:100C10001092E90010920A0210920902F092080262
:100C2000E092070249E050E080E00E94E2030E9467
:100C30000904E2C0F0920802E09207020E946303F6
:100C4000DC011296ED90FC901397E114F10409F485
:100C5000C0C0D701ED91FC910480F581E02DBE016B
:100C60006B5E7F4FC7010995009719F00CF0C4C067
:100C7000C7C0F701E084F184E8CF973009F4C0C021
:100C8000983021F481E08093F100B6C0993009F0EA
:100C9000B3C0837009F0B4C0EDE0F1E081E021E081
:100CA00036E39081992361F08093E9002093EB0073
:100CB00091919093EC003093ED008F5F873089F72E
:100CC0008EE78093EA001092EA008F8980936E018C
:100CD00093C08B8D9C8D1092E90010920A021092A5
:100CE00009029093080280930702898D811156C0F2
:100CF0008E899D89913A59F4813209F081C047E08B
:100D000050E064E071E080E00E94E20375C091323F
:100D100009F076C0833289F4888D90E0982F882777
:100D20002F89822BA0E0B0E0809300019093010115
:100D3000A0930201B09303015FC0803269F48091F7
:100D4000E80082FFFCCF67E084E091E00E943B0472
:100D50008BEF8093E80006C0823209F04DC08F8986
:100D600080930B0180916A01882319F0EEEFFAE07D
:100D700002C0E0E0F8E08091040190910501A091AB
:100D80000601B0910701803B9440A105B10509F02F
:100D90007BC080910B0180FF93C076C00E946303EB
:100DA000DC0112960D911C9113970115110541F16B
:100DB000D801ED91FC910190F081E02DBE016B5EB8
:100DC0007F4FC8010995811117C0F8010085118571
:100DD000ECCF113009F44EC0133091F48F89882381
:100DE00009F445C0823081F440E860E18BE591E090
:100DF0000E94A503882321F08EEF8093E80079C03C
:100E000081E28093EB0075C0813029F440E86BE00B
:100E10008FE491E0EDCF833099F70E946303DC010A
:100E20001296ED90FC9013978E010F5F1F4F680193
:100E3000E114F10479F0D701ED91FC910680F7817E
:100E4000E02DB801C7010995080F111DF701E084D5
:100E5000F184EECFD8011C92F60101900020E9F751
:100E60003197BF016C197D0940E0C601C1CF69E32C
:100E700071E002C06DE371E06115710509F2FB01DB
:100E8000449150E080E840CF0FB6F894A895809147
:100E90006000886180936000109260000FBEA8958A
:100EA000EE3F2AE0F20739F08091FE0A9091FF0AA6
:100EB00091838083A1CF1092FF0A1092FE0A9CCFEB
:100EC000EE3F8AE0F80731F0808191819093FF0A2C
:100ED0008093FE0A87E797E7918380839BE088E110
:100EE0000FB6F894A895809360000FBE90936000B1
:100EF00083CF6C960FB6F894DEBF0FBECDBFDF91E7
:100F0000CF91FF91EF91BF91AF919F918F917F9181
:100F10006F915F914F913F912F911F910F91FF9092
:100F2000EF90DF90CF900F900FBE0F901F9018950D
:100F30006115710579F0FB0101900020E9F7319707
:100F4000AF01461B570BDC01ED91FC910280F38150
:100F5000E02D099480E090E008954F925F926F92A7
:100F60007F92EF92FF920F931F93CF93DF93CDB7B2
:100F7000DEB7A1970FB6F894DEBF0FBECDBF7C01E0
:100F8000FA01CB0119A2223008F42AE08E010F5D8C
:100F90001F4F422E512C612C712CBF01A3019201D5
:100FA0000E94B50AF901CA01015011096A3014F40E
:100FB000605D01C0695CD8016C93232B242B252B29
:100FC00061F7B801C7010E949807A1960FB6F8947F
:100FD000DEBF0FBECDBFDF91CF911F910F91FF906C
:100FE000EF907F906F905F904F900895789484B5C4
:100FF000826084BD84B5816084BD85B5826085BD15
:1010000085B5816085BD80916E00816080936E00A2
:101010001092810080918100826080938100809194
:101020008100816080938100809180008160809345
:101030008000809191008260809391008091910066
:1010400081608093910080919000816080939000F6
:101050008091C10084608093C1008091C100826052
:101060008093C1008091C10081608093C100809114
:10107000C30081608093C3008091C0008260809330
:10108000C0008091C20081608093C20080917A008C
:10109000846080937A0080917A00826080937A00E5
:1010A00080917A00816080937A0080917A008068D4
:1010B00080937A0010926E0110926B0110926C0175
:1010C0008091D70081608093D70080EA8093D80018
:1010D00089B5806189BD89B5826089BD09B400FE8A
:1010E000FDCF61E070E080E090E00E940802809116
:1010F000D8008F7C80618093D8008091E000807F51
:101100008093E0008091E1008E7E8093E1008DE08D
:101110008093E200559A209AEEEFFFE78591949133
:101120008B3F9C4D19F481E080936A011092030279
:101130001092040210920502109206021092C10150
:101140001092C2011092C3011092C40168EB7BE0BF
:1011500080E090E00E9494048FE691E09093020278
:10116000809301020BE110E0C0910B016AE070E096
:1011700080E090E00E940802C1110AC001501109EC
:1011800039F064E670E080E090E00E940802ECCF65
:10119000E0910102F09102028FEF9FEF9587848723
:1011A0000E940D036093C1017093C2018093C3013B
:1011B0009093C40165E271E0809101029091020276
:1011C0000E9498076AE070E080E090E00E9494043A
:1011D00081E08093D5018DE00E94750481E00E943A
:1011E000750482E00E94750468EB7BE080E090E08B
:1011F0000E94080261E082E00E94B30160E081E0A9
:101200000E94B30100E010E094EFC92EDD24D394D6
:10121000E12CF12C0E940D03672B682B692B41F404
:101220000E940D03623071058105910508F40BC120
:101230000E940D03609366017093670180936801BB
:10124000909369018090620190906301A090640185
:10125000B0906501681579058A059B0540F4609397
:1012600062017093630180936401909365018090A3
:10127000620190906301A0906401B09065019B01B0
:10128000AC01281939094A095B0949015A013AEFA9
:1012900083169104A104B10408F4D5C060936201DF
:1012A000709363018093640190936501C092CD01B6
:1012B000D092CE01E092CF01F092D0011092D101F4
:1012C0001092D2011092D3011092D4018091C501E5
:1012D0009091C601A091C701B091C8018093C90146
:1012E0009093CA01A093CB01B093CC010E940D034F
:1012F0006093C5017093C6018093C7019093C801A4
:101300000E940D036093C1017093C2018093C301D9
:101310009093C4010E940D034B015C0167E371E0EF
:1013200080910102909102020E9498072AE041E018
:1013300050E060E070E080910102909102020E9412
:10134000AD076EE371E080910102909102020E946C
:1013500098072AE0B501A401809101029091020250
:101360000E94AD0760E471E0809101029091020259
:101370000E9498078091C5019091C601A091C70174
:10138000B091C801B501A401481B590B6A0B7B0B36
:101390002AE080910102909102020E94AD0760E470
:1013A00071E080910102909102020E9498074091A1
:1013B000C5015091C6016091C7017091C80180912B
:1013C000C9019091CA01A091CB01B091CC01481BF9
:1013D000590B6A0B7B0B2AE080910102909102026B
:1013E0000E94AD0762E471E08091010290910202D7
:1013F0000E9498070E940D03AB01BC012AE0809176
:101400000102909102020E94AD07A0900102B090EB
:10141000020264E471E0C5010E94980764E371E090
:10142000C5010E94980765E070E080E090E00E94AE
:1014300094040E940D036093C5017093C6018093CC
:10144000C7019093C8018FE691E00E942F01892B7C
:1014500009F45DC08FE691E00E94CB0280936101A8
:101460006BE471E08FE691E00E9498074091610182
:1014700050E060E070E02AE08FE691E00E94AD0766
:1014800064E371E08FE691E00E949807209161018A
:10149000C22FCF7330E086E0359527958A95E1F726
:1014A0002230310591F023303105A9F0213031058A
:1014B00031F0D33481F0D43441F0D13441F561E0DE
:1014C0008C2F0E94B301D1E422C060E08C2F0E94D7
:1014D000B301D4E41CC08C2F0E948A0161E0892BE7
:1014E00009F060E08C2F0E94B3018C2F0E948A01CA
:1014F00061E0892B09F060E082E00E94B3018C2F4B
:101500000E948A01682F81E00E94B301D3E4011593
:10151000110509F47FCE0E9400007CCEEFE6F1E0D9
:101520001382128288EE93E0A0E0B0E0848395837A
:10153000A683B78387E191E0918380838FEF9FEF4C
:1015400095878487EFEBF1E016821782108611866B
:10155000128613861486158616861786108A118AB7
:10156000128A138A148A158A0895A1E21A2EAA1BD8
:10157000BB1BFD010DC0AA1FBB1FEE1FFF1FA21743
:10158000B307E407F50720F0A21BB30BE40BF50B40
:10159000661F771F881F991F1A9469F760957095C9
:1015A000809590959B01AC01BD01CF010895EE0F90
:1015B000FF1F0590F491E02D099481E090E0F894EC
:0815C0000C94E20AF894FFCF3D
:1015C800FFFFFFFF00E100000000000000C1808174
:1015D800000000000000000E014202C70224012F93
:1015E80001CB02E902564D4450565F317C315F56BB
:1015F8004D4450560D0A00564D4450455F003A324E
:101608003A007C005F564D4450450049207265639E
:0816180065697665643A200063
:00000001FF
